:060000000A128A110C280F
:10000800FE00030EF0000A08F1000A168A11322ECB
:100018000A128A110F288313DE30FD001230FE0009
:10002800E230FF00C83084000A168A11AA220A1298
:100038008A116630FD000430FE00FB30FF0061309D
:1000480084000A168A11AA220A128A110A168A112B
:1000580024220A128A11F9000A168A1125220A1284
:100068008A11FA00A0308400C8300A168A112622A4
:100078000A128A112030840045300A168A11262275
:100088000A128A11F701F80183010A128A114C2811
:100098000A128A11B6240A128A1101308316031330
:1000A800E800E70183120313610883160313E200D3
:1000B80083120313620883160313E30083120313E6
:1000C800630883160313E400E501BD3083120313AC
:1000D800C5008630C60000300A168A113B240A1271
:1000E8008A110A3083120313C8000030C900003097
:1000F8000A168A1157230A128A11740883120313E5
:10010800CB007308CA000A168A119F250A128A11A1
:1001180083120313480883160313E600643066024B
:10012800031C972898289A286330E60001300A12A1
:100138008A1532220A128A1183160313E9008830BD
:10014800DE001330DF000130DE020030031CDF0365
:10015800DF025E0A031DB4285F0A031DB428B52810
:10016800A7283E306906031DBA28BB28D628E230E6
:10017800F300CE30F4008630F5000A168A11782391
:100188000A128A11E23083120313C900831603137B
:10019800660883120313CA000A128A152A210A1252
:1001A8008A1164293D306906031DDB28DC280929EA
:1001B800053065020318E128E228E4280130E50744
:1001C800E230F300650883120313DA005A07C83EC9
:1001D800840083130008F400840A00088403F500EF
:1001E8000A168A1178230A128A11E230831203133D
:1001F800C90083160313660883120313CA000A1280
:100208008A152A210A128A1164293B306906031DBE
:100218000E290F292C2965080319132914291629D1
:100228000130E502E230F300650883120313DA00B7
:100238005A07C83E840083130008F400840A0008A3
:100248008403F5000A168A1178230A128A11F928FC
:100258003730690603193129322938292F306906C0
:10026800031D3729382964296803031D3C293D29C2
:1002780064290330E8001230E7000A168A11812247
:100288000A128A114C3083120313C5008630C60047
:100298008030C7000A168A11CC240A128A11F30189
:1002A800C4300A168A1116230A128A11F3010F3074
:1002B8000A168A1116230A128A11831203131215B9
:1002C800B73083160313690603196B296C29722941
:1002D8001F306906031D71297229C6290230680674
:1002E800031D77297829C629B5290A168A1181227A
:1002F8000A128A11043083160313E8001430E70049
:10030800E42B0A168A1181220A128A1105308316F3
:100318000313E8001530E700E42B0A168A1181223E
:100328000A128A11063083160313E8001630E70014
:10033800E42B0A168A1181220A128A1108308316C0
:100348000313E8001830E700E42B0A168A1181220B
:100358000A128A11073083160313E8001730E700E2
:10036800E42B6108003A03197929013A0319852910
:10037800033A03199129013A03199D29073A0319E8
:10038800A929E42BB73069060319CB29CC29D2292E
:100398001F306906031DD129D229E42904306806D3
:1003A800031DD729D829E4290230E8001330E700D3
:1003B800F3010C300A168A1116230A128A11E42B4B
:1003C800B73069060319E929EA29F0291F306906B7
:1003D800031DEF29F029E42A08306806031DF529D2
:1003E800F629E42AF3010C300A168A1116230A1298
:1003F8008A11CC3083120313C5008530C6008030C3
:10040800C7000A168A11CC240A128A11DD30831219
:100418000313C5008530C600C030C7000A168A110C
:10042800CC240A128A111A3083120313DC005E30BE
:10043800DB006D30DA00DA0B1F2ADB0B1F2ADC0B1E
:100448001F2A262A0A168A1181220A128A110130C5
:1004580083160313E8000A30F3000030F400831217
:1004680003133808DA00DB015A08F5005B08F600C8
:100478000A128A1506200A128A11730883120313B6
:10048800DC007408DD000A30F3000030F40038089E
:10049800DE00DF015E08F5005F08F6000A128A1523
:1004A8005F200A128A11730883120313E0000330D5
:1004B8000310E00DFF3E031D5C2A0310600D5C0471
:1004C800C90000300A168A1199230A128A110A30C3
:1004D800F3000030F400831203133708DA00DB015D
:1004E8005A08F5005B08F6000A128A1506200A1257
:1004F8008A11730883120313DC007408DD000A30C4
:10050800F3000030F4003708DE00DF015E08F50074
:100518005F08F6000A128A155F200A128A1173080A
:1005280083120313E00003300310E00DFF3E031DA8
:10053800982A0310600D5C04C90001300A168A115C
:1005480099230A128A110A30F3000030F40083124A
:1005580003133608DA00DB015A08F5005B08F600D9
:100568000A128A1506200A128A11730883120313C5
:10057800DC007408DD000A30F3000030F4003608AF
:10058800DE00DF015E08F5005F08F6000A128A1532
:100598005F200A128A11730883120313E0000330E4
:1005A8000310E00DFF3E031DD42A0310600D5C0408
:1005B800C90002300A168A1199230A128A11E42BFB
:1005C800AF306906031DE92AEA2AE42B04306806DD
:1005D8000319EF2AF02AF62A08306806031DF52ABF
:1005E800F62AE42B0130E8000A168A1181220A1241
:1005F8008A11F3010C300A168A1116230A128A117D
:10060800E42BE23083120313CB008316031366082E
:1006180083120313CC000A168A1182260A128A1141
:10062800002C013083160313E8000A168A11812270
:100638000A128A11F3010C300A168A1116230A12BB
:100648008A11831203131211002C0230831603132C
:10065800E8000A168A1181220A128A11F3010C3065
:100668000A168A1116230A128A1183120313121505
:10067800002C670883120313CB0083160313690841
:100688000A128A15B8240A128A11A03A0319292BCA
:10069800013A0319152B002C690883120313CB00A8
:1006A8008316031367080A128A1107240A128A118B
:1006B80083160313E100A1306106031D642B652B2B
:1006C800002C0130E8000A168A1181220A128A11C8
:1006D800F3010C300A168A1116230A128A11392BD3
:1006E800690883120313CE008316031367080A12DE
:1006F8008A15A9210A128A1183160313E000A13072
:100708006006031D882B892B002C0230E8000A168E
:100718008A1181220A128A11002C67080A168A1186
:10072800FF240A128A11023083160313E8008B2B68
:100738000A128A1188270A128A11972B0230831607
:100748000313E8000A168A1181220A128A11F3019A
:100758000C300A168A1116230A128A11392B023014
:1007680083160313E8000A168A1181220A128A11D5
:10077800F3010C300A168A1116230A128A11392B32
:10078800690883120313CB008316031367080A1240
:100798008A1561230A128A11A03A0319B32B013A68
:1007A8000319A22B002C690883120313CB008316AC
:1007B800031367080A128A1555260A128A11002C93
:1007C800831603136808013A0319052B033A031922
:1007D800502B013A03193D2B073A0319742B013AA0
:1007E8000319912B033A03199C2B013A0319C42BC3
:1007F8000F3A0319D72B002C83160313E70175282A
:100808000A128A110C2883120313CE0013304E06E5
:10081800031D0F2C102C1A2C0A168A1181220A1279
:100828008A11053083120313B400B0012F304B0630
:10083800031D1F2C202C322C043030020318252CC9
:10084800262C322C0130B0070A168A1181220A128E
:100858008A11053083120313B400402C37304B063D
:10086800031D372C382C402C300803193C2C3D2C08
:10087800402C0130B002282C3408031D442C452C90
:10088800472CA130B52C0430300203184C2C4D2CC9
:10089800802C8030C9002A300A168A11CD220A120B
:1008A8008A11831203133008CC004C07D43E84000D
:1008B80083130008C500840A00088403C600813039
:1008C800C7000A168A11CC240A128A11831203134C
:1008D8003008CC004C07D63E840083130008C500BE
:1008E800840A00088403C600C130C7000A168A11AA
:1008F800CC240A128A11B22CC030C9002A300A1638
:100908008A11CD220A128A11831203133008CC00EF
:100918004C07D23E840083130008C500840A0008EF
:100928008403C6008130C7000A168A11CC240A1233
:100938008A11831203133008CC004C07D43E84007C
:1009480083130008C500840A00088403C600C13068
:10095800C7000A168A11CC240A128A1183120313BB
:1009680030080800003083120313D5000130D4008A
:100978008630D300A030D2000A168A1133250A1215
:100988008A110A168A11B9220A128A110A128A15BC
:1009980000200A128A110A168A1169220A128A117B
:1009A8000A128A11F9270A128A110A168A1149228B
:1009B8000A128A11003083120313D5000030D400C4
:1009C8002530D3008030D2000A168A119A240A12E0
:1009D8008A111E3083120313C8008630C9000A1614
:1009E8008A11BD230A128A110B178B1708004F347E
:1009F8004E340034FF343F34203420342034203443
:100A080020344E344F3420344C344F34473453342C
:100A1800203420342034203400342034203420344E
:100A28002034543452345934203441344734413416
:100A380049344E34203420342034003420342034D7
:100A48004C344F3447345334203443344C344534D5
:100A58004134523445344434203420340034203472
:100A680020345334553443344334453453345334A5
:100A7800463455344C344C34593420342034003402
:100A880020344C344F344734203444344F345734B2
:100A98004E344C344F344134443445344434203497
:100AA8000034203420344134523445342034413425
:100AB8005634413449344C34413442344C3445344E
:100AC80020340034503441345334533457344F3481
:100AD8005234443420344334483441344E34473457
:100AE800453444340034523445342D3445344E347E
:100AF80054344534523420344E3445345734203439
:100B0800503457344434003445344E345434453426
:100B1800523420344E344534573420345034413420
:100B280053345334573444340034503441345334F8
:100B3800533457345234443420344D3449345334C4
:100B48004D34413454344334483400342034203450
:100B5800543449344D34453420342034203420343E
:100B6800453456342034203453345034003423343C
:100B780020342034543449344D344534203420341E
:100B88002034203445342034203453347034003435
:100B980020342034543469346D346534203463345B
:100BA800683461346E3467346534643420342034F6
:100BB800003420342034533475346334633465345A
:100BC80073347334663475346C346C34793420344B
:100BD80020340034543469346D3465342034283476
:100BE800483448343A344D344D343A345334533419
:100BF8002934003459346F347534203461347234F4
:100C08006534203462346C346F3463346B34653447
:100C1800643400344334683461346E346734653482
:100C28002034503461347334733477346F3472340D
:100C380064340034553441345234543420345434F8
:100C4800453453345434203443344F3444344534D5
:100C58000A340034573452344F344E344734203435
:100C6800503441345334533457344F345234443469
:100C78000034203441347434743465346D34703441
:100C88007434733420346C3465346634743400340A
:100C980045344E345434453452342034503441347D
:100CA8005334533457344F3452344434003420349A
:100CB800203420344E344F3420344C344F344734AD
:100CC8005334203420342034003420342034413448
:100CD8005634413449344C34413442344C3445342C
:100CE8002034203400344C344F34473449344E34A3
:100CF8002034533455344334433445345334533413
:100D0800003444346F3477346E346C346F34613467
:100D1800643420344C346F346734003477346134AD
:100D280069347434203466346F34723420340034B7
:100D380043346C3465346134723420344C346F3449
:100D4800673400345334653474342034543469348B
:100D58006D3465340034563469346534773420345E
:100D68004C346F346734003473346534633473340B
:100D7800003431343134313431340034473431348F
:100D88000034473432340034473433340034473481
:100D98003434003420344334003447344E3400347F
:100DA80047345234003483120313CD004D080A1619
:100DB8008A1168240A128A11C03083120313C900E9
:100DC8000A30F3000030F4004D08CB00CC014B088A
:100DD800F5004C08F6000A128A1506200A128A1134
:100DE8007308303E0A168A11CD220A128A11C230BF
:100DF80083120313C9008316031320080A168A11E5
:100E0800CD220A128A11C33083120313C900831634
:100E1800031321080A168A11CD220A128A11C43036
:100E280083120313C9003A300A168A11CD220A1216
:100E38008A11C53083120313C900831603132208CD
:100E48000A168A11CD220A128A11C6308312031398
:100E5800C9008316031323080A168A11CD220A1221
:100E68008A11C73083120313C9003A300A168A114F
:100E7800CD220A128A11C83083120313C9008316BF
:100E8800031324080A168A11CD220A128A11C930BE
:100E980083120313C9008316031325080A168A113F
:100EA800CD220A128A11CB3083120313C90083168C
:100EB800031326080A168A11CD220A128A11CC3089
:100EC80083120313C9008316031327080A168A110D
:100ED800CD220A128A11CE3083120313C900831659
:100EE800031328080A168A11CD220A128A11CF3054
:100EF80083120313C9008316031329080A168A11DB
:100F0800CD220A128A11080083120313CE01640A43
:100F1800031D8F2F902FBD2F5B30C5008630C60074
:100F28008030C7000A168A11CC240A128A11693047
:100F380083120313C5008630C600C030C7000A16E6
:100F48008A11CC240A128A11E92F831203134E083E
:100F58000A168A1168240A128A11831203134E088A
:100F68000A128A15C4220A128A1101308312031345
:100F7800CE076408CB00CC01CB1BCC034C08803ACD
:100F8800CD0080304D02031DCB2F4E084B020318B5
:100F9800CE2FCF2FA92F443083120313C5008530DD
:100FA800C6008030C7000A168A11CC240A128A119A
:100FB800333083120313C5008530C600C030C70024
:100FC8000A168A11CC240A128A11273083120313B5
:100FD800CD000D30CC002530CB00CB0BF12FCC0B46
:100FE800F12FCD0BF12FF82F0800831603139F174D
:100FF800831203131F1408008316031306083F38CF
:101008008600080083120313C601F61F0C280D285A
:101018001428F509F609F50A0319F60A0130C6007D
:10102800F41F172818281D28F309F409F30A0319CF
:10103800F40A73087404031922282328502801305D
:10104800C5002F2801300310F30DF40DFF3E031DDA
:1010580027280130C507F41F3228332826287408AA
:101068007602031D392873087502031C3C283D28A5
:1010780043287308F5027408031CF603F6020130CE
:101088000310F40CF30CFF3E031D44280130C50285
:10109800031D4F285028332846080319542855287B
:1010A8005A28F509F609F50A0319F60A7608F4002C
:1010B8007508F300080083120313C601F41F65289E
:1010C80066286D28F309F409F30A0319F40A0130B4
:1010D800C600F61F702871287828F509F609F50A60
:1010E8000319F60A0130C606C701C801730874045B
:1010F80003197F288028B5280130C5008C280130C5
:101108000310F30DF40DFF3E031D84280130C507BD
:10111800F41F8F289028832801300310C70DC80DAD
:10112800FF3E031D912874087602031D9D2873084D
:101138007502031CA028A128A8287308F5027408C2
:10114800031CF603F602471401300310F40CF30CE9
:10115800FF3E031DA9280130C502031DB428B52888
:10116800902846080319B928BA28BF28C709C8090A
:10117800C70A0319C80A4808F4004708F30008001A
:10118800003083120313D0000030CF000030CE00AF
:101198000030CD0048084704460445040319D52803
:1011A800D62821290130D100E4280130F3000310AA
:1011B800C50DC60DC70DC80DF30BDB280130D107CF
:1011C800C81FE728E828D9280130F3000310CD0DFF
:1011D800CE0DCF0DD00DF30BEA2848084C02031DA5
:1011E800FF2847084B02031DFF2846084A02031D33
:1011F800FF2845084902031C02290329122945082A
:10120800C9024608031C460FCA024708031C470FB9
:10121800CB024808031C480FCC024D1401300310C0
:10122800C80CC70CC60CC50CFF3E031D13290130A2
:10123800D102031D20292129E8285008C8004F0899
:10124800C7004E08C6004D08C50008000A30F30064
:101258008312031335080A168A1193220A128A1573
:10126800053E83120313CD000A168A113A270A1283
:101278008A15AB30F300BD30F4000630F5000030BD
:10128800F6000A168A1167250A128A15B130F3008A
:10129800831203134908F4000230F5000030F60009
:1012A8000A168A1167250A128A150A30F3000030D7
:1012B800F400831203134A08CB00CC014B08F50055
:1012C8004C08F6000A128A155F200A128A1573085C
:1012D800303E83160313B3000A30F3000030F400E5
:1012E800831203134A08CB00CC014B08F5004C08C5
:1012F800F6000A128A1506200A128A157308303E6B
:1013080083160313B400B501AB3083120313C50071
:101318000030C6004D080A168A113B240A128A15A5
:10132800831203136408803A773E03189C299D2989
:101338009F290130E4070130B5070A303506031D3F
:10134800A629A729A829B501080083120313D200EA
:1013580014305206031DB129B229F7290A168A1139
:1013680081220A128A15053083120313B400640A15
:10137800031DBF29C029E9290030C5008530C600F2
:101388008030C7000A168A11CC240A128A155530F3
:1013980083120313C5008530C600C030C7000A1683
:1013A8008A11CC240A128A15273083120313D1001C
:1013B8000D30D0002530CF00CF0BE029D00BE0292D
:1013C800D10BE029E729A130312ABB30C50085308F
:1013D800C6008030C7000A168A11CC240A128A1562
:1013E80083120313AF012F304E06031DFC29FD297C
:1013F800192A0130AF076408CF00D001CF1BD003F2
:101408005008803AD10080305102031D0D2A2F0860
:101418004F020318102A112A142A83120313AF014A
:10142800053083120313B4002A2A37304E06031DF1
:101438001E2A1F2A2A2A2F08031D232A242A272A7C
:101448006408AF00142A0130AF02142A2F080A12C8
:101458008A11D7260A128A15A0300800F4008312D0
:1014680003130608F5003F30F5057408031D3D2AEF
:101478003E2A402A7508C32A7403031D442A452AB4
:10148800A12A3F30750603194A2A4B2A532A79089C
:1014980003194F2A502A532AF9017508E5003F30ED
:1014A80075060319582A592A782A790803195D2AD2
:1014B8005E2A782A3E3075060319632A642A762A3A
:1014C8003D3075060319692A6A2A762A3B30750663
:1014D80003196F2A702A762A1F307506031D752A8C
:1014E800762A782AF9013E2A3730750603197D2AAB
:1014F8007E2A842A2F307506031D832A842A8C2A83
:1015080079080319882A892A8C2AF9017508E500BF
:101518003F307506031D912A922AA92A7908031DCE
:10152800962A972AA92A0130F900770803199D2AD3
:101538009E2AA32AF7013F30E5003F30C32A6508F9
:10154800F3003F30E5007308C32A78080319AD2A71
:10155800AE2AA12A7708031DB22AB32AA12AF801C4
:101568000130F700BB2AB730C32AAF30C32A7A0844
:101578002F3A0319B92A183A0319B72AA12A0800D9
:1015880083120313CA0023300A168A115E220A1234
:101598008A150A30F3000030F400831203134A0856
:1015A800C800C9014808F5004908F6000A128A155A
:1015B80006200A128A157308303E0A168A115E221E
:1015C8000A128A1520300A168A115E220A128A1512
:1015D8008316031320080A168A115E220A128A1536
:1015E8008316031321080A168A115E220A128A1525
:1015F8003A300A168A115E220A128A1583160313D4
:1016080022080A168A115E220A128A158316031303
:1016180023080A168A115E220A128A153A300A1617
:101628008A115E220A128A158316031324080A16E1
:101638008A115E220A128A158316031325080A16D0
:101648008A115E220A128A1520300A168A115E2231
:101658000A128A158316031326080A168A115E22AF
:101668000A128A158316031327080A168A115E229E
:101678000A128A1520300A168A115E220A128A1561
:101688008316031328080A168A115E220A128A157D
:101698008316031329080A168A115E220A128A156C
:1016A8000D300A168A115E220A128A150A300A16A5
:1016B8008A115E220A128A15080083120313CF00CA
:1016C80017304F06031D692B6A2B992B0A168A11AE
:1016D80081220A128A15883083120313C5008530C7
:1016E800C6008030C7000A168A11CC240A128A154F
:1016F800F301C4300A168A1116230A128A15F30157
:101708000F300A168A1116230A128A158312031338
:10171800AC01AB010530B400BD01BE01BF01C00181
:10172800B901BA01BB01BC01CB0137304B06031D1F
:101738009E2B9F2BCD2B04302C020318A42BA52BFA
:10174800B72B2C083D3E84003130831380000130D4
:10175800AC072C08C43EC9002A300A168A11CD22CB
:101768000A128A15C82B2B08393E8400313083139E
:1017780080000130AB072B08C43EC9002A300A1686
:101788008A11CD220A128A15053083120313B40078
:10179800FD2B2F304B06031DD22BD32BFD2B0430F2
:1017A8002C020318D82BD92BEB2B2C083D3E840098
:1017B8003030831380000130AC072C08C43EC900C8
:1017C8002A300A168A11CD220A128A15C82B2B082C
:1017D800393E84003030831380000130AB072B087A
:1017E800C43EC9002A300A168A11CD220A128A1567
:1017F800C82B04302C06031D022C032C262C013088
:10180800AC070A168A1181220A128A1577308312C8
:101818000313C5008530C6008030C7000A168A1138
:10182800CC240A128A15F301C4300A168A11162329
:101838000A128A15F3010F300A168A1116230A12A2
:101848008A15B72C04302B06031D2B2C2C2CB72CF7
:101858003D30F3003930F4000430F5000030F60074
:101868000A168A11E3250A128A1573087404031DDF
:101878003E2C3F2C862C0A168A1181220A128A15C0
:1018880083120313D00150083D3E840083130008DF
:10189800F40050080A168A11F8220A128A15013033
:1018A80083120313D00704305002031C5C2C5D2CF8
:1018B800472C6630C5008530C6008030C7000A1640
:1018C8008A11CC240A128A15333083120313C500F7
:1018D8008530C600C030C7000A168A11CC240A1207
:1018E8008A151A3083120313CE005E30CD006D3096
:1018F800CC00CC0B7D2CCD0B7D2CCE0B7D2C842CE1
:10190800A030B72C83120313AC01AB019930C5008A
:101918008530C6008030C7000A168A11CC240A1206
:101928008A15113083120313C5008530C600C030F4
:10193800C7000A168A11CC240A128A151A30831293
:101948000313CE005E30CD006D30CC00CC0BAA2C3A
:10195800CD0BAA2CCE0BAA2CB12C0A168A118122E7
:101968000A128A15A130080083120313CF0012301F
:101978004B06031DC02CC12CCB2C0330B200B10187
:10198800C101C201C301C4010530B400CF01373021
:101998004F06031DD02CD12CED2C04303102031836
:1019A800D62CD72CED2C3108413E840031308313DE
:1019B80080000130B1073108C43EC9002A300A1638
:1019C8008A11CD220A128A15053083120313B40036
:1019D8000B2D2F304F06031DF22CF32C0B2D04304A
:1019E80031020318F82CF92C0B2D3108413E8400E4
:1019F8003030831380000130B1073108C43EC9007C
:101A08002A300A168A11CD220A128A15E82C3408BF
:101A1800031D0F2D102D122DA130542E0430310628
:101A2800031D172D182D542ED0015008C43E8400D4
:101A380050080A168A11E5230A128A1583138000B2
:101A4800013083120313D00704305002031C2D2DDC
:101A58002E2D192D4130F300C430F4000430F50068
:101A68000030F6000A168A11E3250A128A1573084F
:101A78007404031D402D412D702D0A168A118122F0
:101A88000A128A15F3010C300A168A1116230A1253
:101A98008A15773083120313C5008630C60080305C
:101AA800C7000A168A11CC240A128A151A30831222
:101AB8000313CE005E30CD006D30CC00CC0B622D10
:101AC800CD0B622DCE0B622D692D831203131211DB
:101AD8000530B400A030542E013083120313B20233
:101AE8003208031D782D792DEF2D0A168A118122CF
:101AF8000A128A15F3010C300A168A1116230A12E3
:101B08008A15FE3083120313C5008530C600803065
:101B1800C7000A168A11CC240A128A159230831239
:101B28000313C5008630C600C030C7000A168A11E4
:101B3800CC240A128A153C3083120313B300D82D23
:101B4800CA30C9000A30F3000030F4003308CC0072
:101B5800CD014C08F5004D08F6000A128A155F20E1
:101B68000A128A157308303E0A168A11CD220A1203
:101B78008A15CB3083120313C9000A30F3000030F2
:101B8800F4003308CC00CD014C08F5004D08F600F0
:101B98000A128A1506200A128A157308303E0A1698
:101BA8008A11CD220A128A15831203133308031DE2
:101BB800DE2DDF2DA42DB830C5008630C600CD300F
:101BC800C7000A168A11CC240A128A150330831218
:101BD8000313B2002F2E0A168A1181220A128A15BF
:101BE800F3010C300A168A1116230A128A152E30B0
:101BF80083120313C5008630C6008030C7000A165A
:101C08008A11CC240A128A15C03083120313C90022
:101C18003208303E0A168A11CD220A128A153D3042
:101C280083120313C5008630C600C230C7000A16E7
:101C38008A11CC240A128A15273083120313CE0086
:101C48000D30CD002530CC00CC0B282ECD0B282E06
:101C5800CE0B282E2F2E0A168A1181220A128A15D7
:101C68004C3083120313C5008630C6008030C7008D
:101C78000A168A11CC240A128A15F301C4300A16EE
:101C88008A1116230A128A15F3010F300A168A11CF
:101C980016230A128A1583120313B1010530B40002
:101CA800080083120313CE0018304E06031D5D2E64
:101CB8005E2EB82E0A168A1181220A128A1505305C
:101CC80083120313B400EE30C5008530C60080309F
:101CD800C7000A168A11CC240A128A150A168A1114
:101CE8003A270A128A15B630F300BD30F4000030E6
:101CF800F5000A168A1178230A128A150A30F300A9
:101D0800831603133A080A168A1193220A128A15AF
:101D1800831603133B07F03E83120313B8000A30FF
:101D2800F3008316031338080A168A1193220A123D
:101D38008A15831603133907F03E83120313B7007D
:101D48000A30F3008316031336080A168A11932201
:101D58000A128A15831603133707F03E83120313FA
:101D6800B6000230AE00AD0137304B06031DBD2E64
:101D7800BE2EE92E02302E06031DC32EC42ECE2EF3
:101D88000130B60718303602031CCB2ECC2EE62EB7
:101D9800B601E62E2E03031DD22ED32EDD2E0130E2
:101DA800B7073C303702031CDA2EDB2EE62EB701CC
:101DB800E62E0130B8073C303802031CE42EE52E2D
:101DC800E62EB8010530B400092F2F304B06031D4D
:101DD800EE2EEF2E092FFF30AE07AE1FF42EF52E94
:101DE800F72E0230AE0002302E06031DFC2EFD2E0B
:101DF800FF2EAD01092F2E03031D032F042F072FDC
:101E08000330AD00092F0630AD000130A7070318D5
:101E1800A80A0030A8072808803AFF0080307F020F
:101E2800031D182F03302702031C1B2F1C2F2E2FD6
:101E380083120313A701A80129082A040319252FCF
:101E4800272F0130282F0030CC00CD014C08A900E5
:101E58004D08AA008312031329082A04031D352FED
:101E6800362FEB2FC030C9000A30F3000030F400E1
:101E78003608CC00CD014C08F5004D08F6000A12D2
:101E88008A155F200A128A157308303E0A168A11CD
:101E9800CD220A128A15C13083120313C9000A30F1
:101EA800F3000030F4003608CC00CD014C08F500F2
:101EB8004D08F6000A128A1506200A128A157308B8
:101EC800303E0A168A11CD220A128A15C2308312B0
:101ED8000313C9003A300A168A11CD220A128A154C
:101EE800C33083120313C9000A30F3000030F40032
:101EF8003708CC00CD014C08F5004D08F6000A1251
:101F08008A155F200A128A157308303E0A168A114C
:101F1800CD220A128A15C43083120313C9000A306D
:101F2800F3000030F4003708CC00CD014C08F50070
:101F38004D08F6000A128A1506200A128A15730837
:101F4800303E0A168A11CD220A128A15C53083122C
:101F58000313C9003A300A168A11CD220A128A15CB
:101F6800C63083120313C9000A30F3000030F400AE
:101F78003808CC00CD014C08F5004D08F6000A12CF
:101F88008A155F200A128A157308303E0A168A11CC
:101F9800CD220A128A15C73083120313C9000A30EA
:101FA800F3000030F4003808CC00CD014C08F500EF
:101FB8004D08F6000A128A1506200A128A157308B7
:101FC800303E0A168A11CD220A128A15FF2F2D08D3
:101FD800C03EC9005F300A168A11CD220A128A153E
:101FE800831203132D08C13EC9005F300A168A11F7
:101FF800CD220A128A150800FF1B0A2883137F18AE
:1020080083170008840A0319FF0A08007F087F392C
:0C2018008A000408840A0319FF0A8200F1
:1024480001343F3464008001840A0406031900340F
:102458000406272A0A168A1174220A168A11831674
:102468000313111408000A168A1174220A168A1115
:1024780083160313111508000A168A1174220A1606
:102488008A118316031391140800FA308316031374
:1024980092008C148312031312118C100800F3009D
:1024A8000A168A1174220A168A11730883120313F2
:1024B8009300080083120313C700470899000C1EF5
:1024C800662A672A632A0C120800831603138801F8
:1024D800091189100A168A119D270A168A110800FF
:1024E800831603131419792A7A2A742A11081F39B2
:1024F800031D7F2A802A742A0800F30101300A1676
:102508008A1116230A168A11043083120313C6008F
:102518003D30C500C50B8E2AC60B8E2A0800F50073
:10252800F401751C982A992A9B2A7308F40703104A
:10253800F30D0310F50C7508031DA32AA42A952A88
:10254800740808007E088A007F0882000A168A112B
:10255800A6220A168A118000840A04087D06031937
:102568000034FF0A0319FE0AAA2A00300A168A1143
:1025780010240A168A1183120313CB007F30CB056F
:102588004B08C90000300A168A1199230A168A11C5
:10259800080083120313CA00F30149080A168A11B6
:1025A80016230A168A11F301F30A831203134A0841
:1025B8000A168A1116230A168A110800D13486349D
:1025C800D4348634C2348634C5348634C834863428
:1025D800CB348634AF3486349C34863485348634A0
:1025E800A63486340E348634F5000A168A112E2253
:1025F8000A168A11A0300A168A1153220A168A115D
:1026080075080A168A1153220A168A1174080A16BE
:102618008A1153220A168A110A168A1137220A16B3
:102628008A110800F60073181A2B1E2B8312031345
:102638000915212B831203130911760888008914C0
:10264800A630F400F40B262B000083120313891024
:102658001B30F5009E30F400F40B302BF50B302BBB
:1026680000000800F3000A168A1174220A168A115B
:102678008316031391150A168A1174220A168A11F1
:10268800831203131308F4007303031D4C2B4D2B03
:10269800512B831603139116542B8316031391128F
:1026A80011167408080083120313C5004508F500C5
:1026B80003300310F50DFF3E031D5D2B1F08C739BE
:1026C80075049F001F151F196A2B6B2B672B1E089B
:1026D800C700831603131E0883120313C600470896
:1026E800F4004608F30008007308F6007508831222
:1026F8000313C6007408C500F40A0319F50A46084E
:10270800FF00450884000A168A1100200A168A115B
:10271800C7007608F60A840047088313800000087B
:10272800031D972B982B7A2B080083120313CA00DA
:102738000A168A112E220A168A11D0300A168A1110
:1027480053220A168A11831203134A080A168A1199
:1027580053220A168A118312031349080A168A118A
:1027680053220A168A110A168A1137220A168A1162
:102778000800D42B4908FF00480884000A168A116B
:1027880000200A168A110A168A115E220A168A1170
:10279800013083120313C8070318C90A0030C90798
:1027A800831203134908FF00480884000A168A1197
:1027B80000200A168A11003A031DE32BE42BBE2BD6
:1027C8000800F5000A168A112E220A168A11A0306E
:1027D8000A168A1153220A168A1175080A168A11CE
:1027E80053220A168A110A168A1140220A168A11D9
:1027F800A1300A168A1153220A168A1100300A16C5
:102808008A1136230A168A11F6000A168A11372207
:102818000A168A1176080800F5000A168A112E226F
:102828000A168A11D0300A168A1153220A168A11FA
:1028380075080A168A1153220A168A110A168A116D
:1028480040220A168A11D1300A168A1153220A1612
:102858008A1100300A168A1136230A168A11F600E0
:102868000A168A1137220A168A1176080800F60015
:10287800572C4608FF00450884000A168A110020D4
:102888000A168A11F40076080A168A11F8220A161E
:102898008A110130F607013083120313C5070318A4
:1028A800C60A0030C607831203134608FF0045080E
:1028B80084000A168A1100200A168A11003A031D9C
:1028C800662C672C3D2C080083120313C5000A30C0
:1028D800F30045080A168A1193220A168A11053E42
:1028E80083120313C600C701C8014708A03E84002D
:1028F800470846070A168A11E5230A168A11831320
:102908008000013083120313C7070318C80A003078
:10291800C807003048020A3003194702031C952CE7
:10292800962C792C83160313AA010800831203132B
:10293800981718165208D6005308D7005408D8001C
:102948005508D90004300310D60DD70DD80DD90D70
:10295800FF3E031DA72C5908C8005808C700570890
:10296800C6005608C5000130CC003130CB002D30F0
:10297800CA000030C9000A128A15C4200A168A1132
:10298800831203134508FF3E8316031399000800BA
:10299800F3018312031347080A168A1116230A162D
:1029A8008A11EE2CF301F30A4608FF00450884005B
:1029B8000A168A1100200A168A110A168A11162385
:1029C8000A168A11013083120313C5070318C60AB1
:1029D8000030C607831203134608FF004508840029
:1029E8000A168A1100200A168A11003A031DFD2CC6
:1029F800FE2CD62C080083120313CB0015304B068F
:102A0800031D072D082D322DFF30E400B5012230BB
:102A1800C5008530C6008030C7000A168A11CC244C
:102A28000A168A11333083120313C5008530C60095
:102A3800C030C7000A168A11CC240A168A111A3027
:102A480083120313CA005E30C9006D30C800C80B7A
:102A58002B2DC90B2B2DCA0B2B2D322D08008312C1
:102A6800031394155208D6005308D7005408D80009
:102A78005508D90002300310D60DD70DD80DD90D41
:102A8800FF3E031D3F2D5908C8005808C7005708C6
:102A9800C6005608C5000130CC003130CB002D30BF
:102AA800CA000030C9000A128A15C4200A168A1101
:102AB800831203134508FF3E831603139300831202
:102AC800031394160800730883120313C600832D9A
:102AD8000130F5020030031CF603F6027408F40A0C
:102AE800840083130008C5004608C60A8400450808
:102AF80080000008031D812D822D832D902D7508DF
:102B08007604031D882D892D6C2D902D4608840090
:102B1800831380010130C6070130F5020030031C21
:102B2800F603F602750A031D9D2D760A031D9D2DD9
:102B38009E2D8A2D080083120313CD01CE0148086B
:102B480049040319A82DA92DDE2D0130CC00B52D7F
:102B580001300310C80DC90DFF3E031DAD2D013016
:102B6800CC07C91FB82DB92DAC2D01300310CD0DE0
:102B7800CE0DFF3E031DBA2D49084B02031DC62D7D
:102B880048084A02031CC92DCA2DD12D4808CA027B
:102B98004908031CCB03CB024D1401300310C90CA8
:102BA800C80CFF3E031DD22D0130CC02031DDD2DC4
:102BB800DE2DB92D4E08C9004D08C80008000130A7
:102BC800F5020030031CF603F602750A031DF02D0A
:102BD800760A031DF02DF12DFE2DF301F401312E9F
:102BE8000130F3070130F4070130F5020030031C0F
:102BF800F603F60273088400831300080319052EF0
:102C0800062E212E74088400000803190C2E0D2EA0
:102C1800212E750876040319122E132E212E7408FE
:102C28008400000883120313C50073088400000899
:102C380045060319202E212EF42D7408840000085F
:102C480083120313C500730884000008C6004508F2
:102C58004602F300F401031CF40308008312031373
:102C68008C1C372E382E7B2E0130A5070318A60A98
:102C78000030A607203025064E3003192606031D0E
:102C8800462E472E572EA501A601340803194D2EAE
:102C98004E2E502E0130B40233080319542E552EEF
:102CA800572E0130B3020608F2003F30F2053F30DC
:102CB80072060319602E612E772E7208FA00013011
:102CC800A3070318A40A0030A407273024021030F1
:102CD80003192302031C712E722E7A2E0130F8007C
:102CE800A301A4017A2E3F30FA00742E8C107108CB
:102CF8008A00700E8300FE0E7E0E0900AA30831231
:102D08000313C5008530C6008030C7000A168A1133
:102D1800CC240A168A110A168A11D8260A168A118C
:102D2800831203134B08C5000030C600CA30C70021
:102D38000A168A11CC240A168A11CE30831203137C
:102D4800C9000A30F3000030F4004C08CD00CE0171
:102D58004D08F5004E08F6000A128A155F200A167B
:102D68008A117308303E0A168A11CD220A168A1172
:102D7800CF3083120313C9000A30F3000030F40087
:102D88004C08CD00CE014D08F5004E08F6000A1299
:102D98008A1506200A168A117308303E0A168A1107
:102DA800CD220A168A1108000A168A113A270A162D
:102DB8008A11C03083120313C900831603133D0818
:102DC8000A168A11CD220A168A11C13083120313FA
:102DD800C900831603133E080A168A11CD220A1663
:102DE8008A11C23083120313C9003A300A168A11B5
:102DF800CD220A168A11C33083120313C900831621
:102E080003133F080A168A11CD220A168A11C43004
:102E180083120313C9008316031340080A168A1184
:102E2800CD220A168A11C53083120313C9003A301D
:102E38000A168A11CD220A168A11C6308312031384
:102E4800C9008316031341080A168A11CD220A16EF
:102E58008A11C73083120313C9008316031342086B
:102E68000A168A11CD220A168A11080002300A169B
:102E78008A1110240A168A1183120313A000013044
:102E88000A168A1110240A168A1183120313A10044
:102E980000300A168A1110240A168A1183120313A5
:102EA800A2002008C50004300310C50CFF3E031D16
:102EB800582F45080339303E83160313BD0083128B
:102EC800031320080F39303E83160313BE00831204
:102ED80003132108C50004300310C50CFF3E031D71
:102EE800702F45080739303E83160313BF0083123D
:102EF800031321080F39303E83160313C0008312D1
:102F080003132208C50004300310C50CFF3E031D3F
:102F1800882F45080739303E83160313C1008312F2
:102F2800031322080F39303E83160313C200C3016E
:102F38000800C33083120313C600CC30C500C50B8C
:102F4800A32FC60BA32F0000F30133300A168A11F2
:102F580016230A168A111B3083120313C6009D30EC
:102F6800C500C50BB52FC60BB52FBA2FF3013330EB
:102F78000A168A1116230A168A11A530831203131A
:102F8800C500C50BC52FC82FF30133300A168A11A7
:102F980016230A168A11D02FD12F0000F3013830DA
:102FA8000A168A1116230A168A11A53083120313EA
:102FB800C500C50BDD2FE02FF30101300A168A1179
:102FC80016230A168A11043083120313C6003D30F3
:102FD800C500C50BED2FC60BED2FF3010C300A16FB
:102FE8008A1116230A168A11A53083120313C50005
:082FF800C50BFC2FFF2F0800A0
:08400000FF3FFF3FFF3FFF3FC0
:02400E00FB3F76
:00000001FF
